{
  "_format": "hh-sol-artifact-1",
  "contractName": "PreSale",
  "sourceName": "contracts/PreSale.sol",
  "abi": [
    {
      "inputs": [
        {
          "internalType": "uint256",
          "name": "_basePrice",
          "type": "uint256"
        }
      ],
      "stateMutability": "nonpayable",
      "type": "constructor"
    },
    {
      "anonymous": false,
      "inputs": [
        {
          "indexed": false,
          "internalType": "uint256",
          "name": "newPhase",
          "type": "uint256"
        },
        {
          "indexed": false,
          "internalType": "uint256",
          "name": "newPrice",
          "type": "uint256"
        }
      ],
      "name": "PhaseChanged",
      "type": "event"
    },
    {
      "anonymous": false,
      "inputs": [
        {
          "indexed": true,
          "internalType": "address",
          "name": "buyer",
          "type": "address"
        },
        {
          "indexed": false,
          "internalType": "uint256",
          "name": "phase",
          "type": "uint256"
        },
        {
          "indexed": false,
          "internalType": "uint256",
          "name": "ethAmount",
          "type": "uint256"
        },
        {
          "indexed": false,
          "internalType": "uint256",
          "name": "tokenAmount",
          "type": "uint256"
        },
        {
          "indexed": false,
          "internalType": "uint256",
          "name": "pricePerToken",
          "type": "uint256"
        }
      ],
      "name": "TokensPurchased",
      "type": "event"
    },
    {
      "inputs": [],
      "name": "TOTAL_PHASES",
      "outputs": [
        {
          "internalType": "uint256",
          "name": "",
          "type": "uint256"
        }
      ],
      "stateMutability": "view",
      "type": "function"
    },
    {
      "inputs": [],
      "name": "basePrice",
      "outputs": [
        {
          "internalType": "uint256",
          "name": "",
          "type": "uint256"
        }
      ],
      "stateMutability": "view",
      "type": "function"
    },
    {
      "inputs": [
        {
          "internalType": "uint256",
          "name": "tokenAmount",
          "type": "uint256"
        }
      ],
      "name": "buyTokensAmount",
      "outputs": [],
      "stateMutability": "payable",
      "type": "function"
    },
    {
      "inputs": [
        {
          "internalType": "uint256",
          "name": "tokenAmount",
          "type": "uint256"
        }
      ],
      "name": "calculateETHForTokens",
      "outputs": [
        {
          "internalType": "uint256",
          "name": "",
          "type": "uint256"
        }
      ],
      "stateMutability": "view",
      "type": "function"
    },
    {
      "inputs": [],
      "name": "currentPhase",
      "outputs": [
        {
          "internalType": "uint256",
          "name": "",
          "type": "uint256"
        }
      ],
      "stateMutability": "view",
      "type": "function"
    },
    {
      "inputs": [],
      "name": "getCurrentPrice",
      "outputs": [
        {
          "internalType": "uint256",
          "name": "",
          "type": "uint256"
        }
      ],
      "stateMutability": "view",
      "type": "function"
    },
    {
      "inputs": [
        {
          "internalType": "address",
          "name": "user",
          "type": "address"
        }
      ],
      "name": "getTokenBalance",
      "outputs": [
        {
          "internalType": "uint256",
          "name": "",
          "type": "uint256"
        }
      ],
      "stateMutability": "view",
      "type": "function"
    },
    {
      "inputs": [],
      "name": "nextPhase",
      "outputs": [],
      "stateMutability": "nonpayable",
      "type": "function"
    },
    {
      "inputs": [],
      "name": "owner",
      "outputs": [
        {
          "internalType": "address",
          "name": "",
          "type": "address"
        }
      ],
      "stateMutability": "view",
      "type": "function"
    },
    {
      "inputs": [
        {
          "internalType": "address",
          "name": "",
          "type": "address"
        }
      ],
      "name": "tokenBalances",
      "outputs": [
        {
          "internalType": "uint256",
          "name": "",
          "type": "uint256"
        }
      ],
      "stateMutability": "view",
      "type": "function"
    },
    {
      "inputs": [],
      "name": "totalTokensSold",
      "outputs": [
        {
          "internalType": "uint256",
          "name": "",
          "type": "uint256"
        }
      ],
      "stateMutability": "view",
      "type": "function"
    },
    {
      "inputs": [],
      "name": "withdraw",
      "outputs": [],
      "stateMutability": "nonpayable",
      "type": "function"
    }
  ],
  "bytecode": "0x608060405234801561001057600080fd5b50604051610fb3380380610fb3833981810160405281019061003291906100c1565b336000806101000a81548173ffffffffffffffffffffffffffffffffffffffff021916908373ffffffffffffffffffffffffffffffffffffffff1602179055506001808190555080600281905550506100ee565b600080fd5b6000819050919050565b61009e8161008b565b81146100a957600080fd5b50565b6000815190506100bb81610095565b92915050565b6000602082840312156100d7576100d6610086565b5b60006100e5848285016100ac565b91505092915050565b610eb6806100fd6000396000f3fe6080604052600436106100a75760003560e01c8063841aeda311610064578063841aeda3146101aa5780638da5cb5b146101d5578063a600074914610200578063c7876ea41461023d578063e3f231f714610268578063eb91d37e14610284576100a7565b8063055ad42e146100ac5780633aecd0e3146100d75780633ccfd60b146101145780633eadb6db1461012b578063523fba7f1461014257806363b201171461017f575b600080fd5b3480156100b857600080fd5b506100c16102af565b6040516100ce919061087e565b60405180910390f35b3480156100e357600080fd5b506100fe60048036038101906100f991906108fc565b6102b5565b60405161010b919061087e565b60405180910390f35b34801561012057600080fd5b506101296102fe565b005b34801561013757600080fd5b5061014061043e565b005b34801561014e57600080fd5b50610169600480360381019061016491906108fc565b61056d565b604051610176919061087e565b60405180910390f35b34801561018b57600080fd5b50610194610585565b6040516101a1919061087e565b60405180910390f35b3480156101b657600080fd5b506101bf61058b565b6040516101cc919061087e565b60405180910390f35b3480156101e157600080fd5b506101ea610590565b6040516101f79190610938565b60405180910390f35b34801561020c57600080fd5b506102276004803603810190610222919061097f565b6105b4565b604051610234919061087e565b60405180910390f35b34801561024957600080fd5b506102526105e8565b60405161025f919061087e565b60405180910390f35b610282600480360381019061027d919061097f565b6105ee565b005b34801561029057600080fd5b5061029961081c565b6040516102a6919061087e565b60405180910390f35b60015481565b6000600360008373ffffffffffffffffffffffffffffffffffffffff1673ffffffffffffffffffffffffffffffffffffffff168152602001908152602001600020549050919050565b60008054906101000a900473ffffffffffffffffffffffffffffffffffffffff1673ffffffffffffffffffffffffffffffffffffffff163373ffffffffffffffffffffffffffffffffffffffff161461038c576040517f08c379a000000000000000000000000000000000000000000000000000000000815260040161038390610a2f565b60405180910390fd5b6000479050600081116103d4576040517f08c379a00000000000000000000000000000000000000000000000000000000081526004016103cb90610a9b565b60405180910390fd5b60008054906101000a900473ffffffffffffffffffffffffffffffffffffffff1673ffffffffffffffffffffffffffffffffffffffff166108fc829081150290604051600060405180830381858888f1935050505015801561043a573d6000803e3d6000fd5b5050565b60008054906101000a900473ffffffffffffffffffffffffffffffffffffffff1673ffffffffffffffffffffffffffffffffffffffff163373ffffffffffffffffffffffffffffffffffffffff16146104cc576040517f08c379a00000000000000000000000000000000000000000000000000000000081526004016104c390610a2f565b60405180910390fd5b600560015410610511576040517f08c379a000000000000000000000000000000000000000000000000000000000815260040161050890610b07565b60405180910390fd5b6001600081548092919061052490610b56565b91905055507f397e19cc95daee46ec657cb4185007d81b62d29f95038943e9b631b54944a5d360015461055561081c565b604051610563929190610b9e565b60405180910390a1565b60036020528060005260406000206000915090505481565b60045481565b600581565b60008054906101000a900473ffffffffffffffffffffffffffffffffffffffff1681565b6000806105bf61081c565b9050670de0b6b3a764000081846105d69190610bc7565b6105e09190610c38565b915050919050565b60025481565b60018054101580156106035750600560015411155b610642576040517f08c379a000000000000000000000000000000000000000000000000000000000815260040161063990610cb5565b60405180910390fd5b60008111610685576040517f08c379a000000000000000000000000000000000000000000000000000000000815260040161067c90610d47565b60405180910390fd5b600061068f61081c565b90506000670de0b6b3a764000082846106a89190610bc7565b6106b29190610c38565b9050803410156106f7576040517f08c379a00000000000000000000000000000000000000000000000000000000081526004016106ee90610db3565b60405180910390fd5b82600360003373ffffffffffffffffffffffffffffffffffffffff1673ffffffffffffffffffffffffffffffffffffffff16815260200190815260200160002060008282546107469190610dd3565b92505081905550826004600082825461075f9190610dd3565b92505081905550803411156107c1573373ffffffffffffffffffffffffffffffffffffffff166108fc82346107949190610e07565b9081150290604051600060405180830381858888f193505050501580156107bf573d6000803e3d6000fd5b505b3373ffffffffffffffffffffffffffffffffffffffff167f34987d73948b60cfba9beeb35760c345a3be430f3540605113911ead78a0830e60015483868660405161080f9493929190610e3b565b60405180910390a2505050565b60008060025490506000600190505b60015481101561085d576064607d836108449190610bc7565b61084e9190610c38565b9150808060010191505061082b565b508091505090565b6000819050919050565b61087881610865565b82525050565b6000602082019050610893600083018461086f565b92915050565b600080fd5b600073ffffffffffffffffffffffffffffffffffffffff82169050919050565b60006108c98261089e565b9050919050565b6108d9816108be565b81146108e457600080fd5b50565b6000813590506108f6816108d0565b92915050565b60006020828403121561091257610911610899565b5b6000610920848285016108e7565b91505092915050565b610932816108be565b82525050565b600060208201905061094d6000830184610929565b92915050565b61095c81610865565b811461096757600080fd5b50565b60008135905061097981610953565b92915050565b60006020828403121561099557610994610899565b5b60006109a38482850161096a565b91505092915050565b600082825260208201905092915050565b7f4f6e6c79206f776e65722063616e2063616c6c20746869732066756e6374696f60008201527f6e00000000000000000000000000000000000000000000000000000000000000602082015250565b6000610a196021836109ac565b9150610a24826109bd565b604082019050919050565b60006020820190508181036000830152610a4881610a0c565b9050919050565b7f4e6f2066756e647320746f207769746864726177000000000000000000000000600082015250565b6000610a856014836109ac565b9150610a9082610a4f565b602082019050919050565b60006020820190508181036000830152610ab481610a78565b9050919050565b7f416c72656164792061742066696e616c20706861736500000000000000000000600082015250565b6000610af16016836109ac565b9150610afc82610abb565b602082019050919050565b60006020820190508181036000830152610b2081610ae4565b9050919050565b7f4e487b7100000000000000000000000000000000000000000000000000000000600052601160045260246000fd5b6000610b6182610865565b91507fffffffffffffffffffffffffffffffffffffffffffffffffffffffffffffffff8203610b9357610b92610b27565b5b600182019050919050565b6000604082019050610bb3600083018561086f565b610bc0602083018461086f565b9392505050565b6000610bd282610865565b9150610bdd83610865565b9250828202610beb81610865565b91508282048414831517610c0257610c01610b27565b5b5092915050565b7f4e487b7100000000000000000000000000000000000000000000000000000000600052601260045260246000fd5b6000610c4382610865565b9150610c4e83610865565b925082610c5e57610c5d610c09565b5b828204905092915050565b7f496e76616c696420706861736500000000000000000000000000000000000000600082015250565b6000610c9f600d836109ac565b9150610caa82610c69565b602082019050919050565b60006020820190508181036000830152610cce81610c92565b9050919050565b7f546f6b656e20616d6f756e74206d75737420626520677265617465722074686160008201527f6e20300000000000000000000000000000000000000000000000000000000000602082015250565b6000610d316023836109ac565b9150610d3c82610cd5565b604082019050919050565b60006020820190508181036000830152610d6081610d24565b9050919050565b7f496e73756666696369656e74204554482073656e740000000000000000000000600082015250565b6000610d9d6015836109ac565b9150610da882610d67565b602082019050919050565b60006020820190508181036000830152610dcc81610d90565b9050919050565b6000610dde82610865565b9150610de983610865565b9250828201905080821115610e0157610e00610b27565b5b92915050565b6000610e1282610865565b9150610e1d83610865565b9250828203905081811115610e3557610e34610b27565b5b92915050565b6000608082019050610e50600083018761086f565b610e5d602083018661086f565b610e6a604083018561086f565b610e77606083018461086f565b9594505050505056fea2646970667358221220dcd49f961c4ab9d35c5ef2dce6c22c9230903b70dd5a4af60a19b161bd11d75764736f6c634300081c0033",
  "linkReferences": {},
  "deployedLinkReferences": {}
}